{
  "contractName": "Insurance",
  "abi": [
    {
      "inputs": [],
      "payable": false,
      "stateMutability": "nonpayable",
      "type": "constructor"
    },
    {
      "anonymous": false,
      "inputs": [
        {
          "indexed": false,
          "internalType": "address",
          "name": "claimer",
          "type": "address"
        },
        {
          "indexed": false,
          "internalType": "uint256",
          "name": "amount",
          "type": "uint256"
        }
      ],
      "name": "ClaimNotification",
      "type": "event"
    },
    {
      "constant": false,
      "inputs": [
        {
          "internalType": "uint8",
          "name": "eType",
          "type": "uint8"
        },
        {
          "internalType": "uint256",
          "name": "premium",
          "type": "uint256"
        }
      ],
      "name": "buyInsurance",
      "outputs": [
        {
          "internalType": "string",
          "name": "",
          "type": "string"
        }
      ],
      "payable": false,
      "stateMutability": "nonpayable",
      "type": "function"
    },
    {
      "constant": false,
      "inputs": [
        {
          "internalType": "uint8",
          "name": "eType",
          "type": "uint8"
        }
      ],
      "name": "payPremium",
      "outputs": [],
      "payable": true,
      "stateMutability": "payable",
      "type": "function"
    },
    {
      "constant": false,
      "inputs": [
        {
          "internalType": "uint8",
          "name": "eType",
          "type": "uint8"
        },
        {
          "internalType": "uint256",
          "name": "amount",
          "type": "uint256"
        }
      ],
      "name": "claimInsurance",
      "outputs": [
        {
          "internalType": "string",
          "name": "",
          "type": "string"
        }
      ],
      "payable": false,
      "stateMutability": "nonpayable",
      "type": "function"
    },
    {
      "constant": false,
      "inputs": [
        {
          "internalType": "address payable",
          "name": "claimer",
          "type": "address"
        },
        {
          "internalType": "uint8",
          "name": "eType",
          "type": "uint8"
        }
      ],
      "name": "approveInsurance",
      "outputs": [
        {
          "internalType": "string",
          "name": "",
          "type": "string"
        }
      ],
      "payable": false,
      "stateMutability": "nonpayable",
      "type": "function"
    },
    {
      "constant": true,
      "inputs": [],
      "name": "getClaims",
      "outputs": [
        {
          "components": [
            {
              "internalType": "address",
              "name": "sender",
              "type": "address"
            },
            {
              "internalType": "uint8",
              "name": "eType",
              "type": "uint8"
            },
            {
              "internalType": "uint256",
              "name": "amount",
              "type": "uint256"
            }
          ],
          "internalType": "struct Insurance.StoreClaim[]",
          "name": "",
          "type": "tuple[]"
        }
      ],
      "payable": false,
      "stateMutability": "view",
      "type": "function"
    },
    {
      "constant": true,
      "inputs": [],
      "name": "getUserClaims",
      "outputs": [
        {
          "components": [
            {
              "internalType": "uint8",
              "name": "eType",
              "type": "uint8"
            },
            {
              "internalType": "uint256",
              "name": "amount",
              "type": "uint256"
            }
          ],
          "internalType": "struct Insurance.Claim[]",
          "name": "",
          "type": "tuple[]"
        }
      ],
      "payable": false,
      "stateMutability": "view",
      "type": "function"
    },
    {
      "constant": true,
      "inputs": [],
      "name": "getBalance",
      "outputs": [
        {
          "internalType": "uint256",
          "name": "",
          "type": "uint256"
        }
      ],
      "payable": false,
      "stateMutability": "view",
      "type": "function"
    },
    {
      "constant": false,
      "inputs": [],
      "name": "closeCompany",
      "outputs": [],
      "payable": false,
      "stateMutability": "nonpayable",
      "type": "function"
    },
    {
      "constant": true,
      "inputs": [],
      "name": "getInsurances",
      "outputs": [
        {
          "components": [
            {
              "internalType": "uint8",
              "name": "eType",
              "type": "uint8"
            },
            {
              "internalType": "uint256",
              "name": "premium",
              "type": "uint256"
            }
          ],
          "internalType": "struct Insurance.Entity[]",
          "name": "",
          "type": "tuple[]"
        }
      ],
      "payable": false,
      "stateMutability": "view",
      "type": "function"
    }
  ],
  "bytecode": "0x608060405234801561001057600080fd5b50336000806101000a81548173ffffffffffffffffffffffffffffffffffffffff021916908373ffffffffffffffffffffffffffffffffffffffff16021790555033600160006101000a81548173ffffffffffffffffffffffffffffffffffffffff021916908373ffffffffffffffffffffffffffffffffffffffff160217905550611cd9806100a16000396000f3fe6080604052600436106100865760003560e01c80633078eb40116100595780633078eb4014610123578063637d3a3614610160578063c52822f81461019d578063ccf2a0a3146101c8578063e28a392a1461020557610086565b8063068ffb311461008b5780630e709ca7146100a257806312065fe0146100cd578063216e14fb146100f8575b600080fd5b34801561009757600080fd5b506100a0610221565b005b3480156100ae57600080fd5b506100b76102ea565b6040516100c4919061194a565b60405180910390f35b3480156100d957600080fd5b506100e26103ad565b6040516100ef9190611ad0565b60405180910390f35b34801561010457600080fd5b5061010d6103cc565b60405161011a9190611928565b60405180910390f35b34801561012f57600080fd5b5061014a6004803603610145919081019061139d565b61048f565b604051610157919061198e565b60405180910390f35b34801561016c57600080fd5b5061018760048036036101829190810190611338565b610746565b604051610194919061198e565b60405180910390f35b3480156101a957600080fd5b506101b2610b2a565b6040516101bf919061196c565b60405180910390f35b3480156101d457600080fd5b506101ef60048036036101ea919081019061139d565b610c95565b6040516101fc919061198e565b60405180910390f35b61021f600480360361021a9190810190611374565b6110fb565b005b6000809054906101000a900473ffffffffffffffffffffffffffffffffffffffff1673ffffffffffffffffffffffffffffffffffffffff163373ffffffffffffffffffffffffffffffffffffffff16146102b0576040517f08c379a00000000000000000000000000000000000000000000000000000000081526004016102a790611a90565b60405180910390fd5b6000809054906101000a900473ffffffffffffffffffffffffffffffffffffffff1673ffffffffffffffffffffffffffffffffffffffff16ff5b6060600460003373ffffffffffffffffffffffffffffffffffffffff1673ffffffffffffffffffffffffffffffffffffffff168152602001908152602001600020805480602002602001604051908101604052809291908181526020016000905b828210156103a457838290600052602060002090600202016040518060400160405290816000820160009054906101000a900460ff1660ff1660ff1681526020016001820154815250508152602001906001019061034b565b50505050905090565b60003373ffffffffffffffffffffffffffffffffffffffff1631905090565b6060600860003373ffffffffffffffffffffffffffffffffffffffff1673ffffffffffffffffffffffffffffffffffffffff168152602001908152602001600020805480602002602001604051908101604052809291908181526020016000905b8282101561048657838290600052602060002090600202016040518060400160405290816000820160009054906101000a900460ff1660ff1660ff1681526020016001820154815250508152602001906001019061042d565b50505050905090565b6060600160009054906101000a900473ffffffffffffffffffffffffffffffffffffffff1673ffffffffffffffffffffffffffffffffffffffff163373ffffffffffffffffffffffffffffffffffffffff161415610522576040517f08c379a000000000000000000000000000000000000000000000000000000000815260040161051990611a50565b60405180910390fd5b600660003373ffffffffffffffffffffffffffffffffffffffff1673ffffffffffffffffffffffffffffffffffffffff16815260200190815260200160002060008460ff1660ff16815260200190815260200160002060009054906101000a900460ff16156105c6576040517f08c379a00000000000000000000000000000000000000000000000000000000081526004016105bd90611a70565b60405180910390fd5b81600560003373ffffffffffffffffffffffffffffffffffffffff1673ffffffffffffffffffffffffffffffffffffffff16815260200190815260200160002060008560ff1660ff168152602001908152602001600020819055506001600660003373ffffffffffffffffffffffffffffffffffffffff1673ffffffffffffffffffffffffffffffffffffffff16815260200190815260200160002060008560ff1660ff16815260200190815260200160002060006101000a81548160ff021916908315150217905550600460003373ffffffffffffffffffffffffffffffffffffffff1673ffffffffffffffffffffffffffffffffffffffff16815260200190815260200160002060405180604001604052808560ff168152602001848152509080600181540180825580915050906001820390600052602060002090600202016000909192909190915060008201518160000160006101000a81548160ff021916908360ff1602179055506020820151816001015550505092915050565b6060600160009054906101000a900473ffffffffffffffffffffffffffffffffffffffff1673ffffffffffffffffffffffffffffffffffffffff163373ffffffffffffffffffffffffffffffffffffffff16146107d8576040517f08c379a00000000000000000000000000000000000000000000000000000000081526004016107cf906119f0565b60405180910390fd5b600a60008473ffffffffffffffffffffffffffffffffffffffff1673ffffffffffffffffffffffffffffffffffffffff16815260200190815260200160002060008360ff1660ff16815260200190815260200160002060009054906101000a900460ff1661087b576040517f08c379a0000000000000000000000000000000000000000000000000000000008152600401610872906119d0565b60405180910390fd5b600b60008473ffffffffffffffffffffffffffffffffffffffff1673ffffffffffffffffffffffffffffffffffffffff16815260200190815260200160002060008360ff1660ff16815260200190815260200160002060009054906101000a900460ff161561091f576040517f08c379a000000000000000000000000000000000000000000000000000000000815260040161091690611a10565b60405180910390fd5b6001600b60008573ffffffffffffffffffffffffffffffffffffffff1673ffffffffffffffffffffffffffffffffffffffff16815260200190815260200160002060008460ff1660ff16815260200190815260200160002060006101000a81548160ff0219169083151502179055506000600760008573ffffffffffffffffffffffffffffffffffffffff1673ffffffffffffffffffffffffffffffffffffffff16815260200190815260200160002060008460ff1660ff1681526020019081526020016000205490508373ffffffffffffffffffffffffffffffffffffffff166108fc600a6007840281610a1057fe5b049081150290604051600060405180830381858888f19350505050158015610a3c573d6000803e3d6000fd5b503373ffffffffffffffffffffffffffffffffffffffff166108fc600a6001840281610a6457fe5b049081150290604051600060405180830381858888f19350505050158015610a90573d6000803e3d6000fd5b50600760008573ffffffffffffffffffffffffffffffffffffffff1673ffffffffffffffffffffffffffffffffffffffff16815260200190815260200160002060008460ff1660ff168152602001908152602001600020600090556040518060400160405280600781526020017f537563636573730000000000000000000000000000000000000000000000000081525091505092915050565b60606000809054906101000a900473ffffffffffffffffffffffffffffffffffffffff1673ffffffffffffffffffffffffffffffffffffffff163373ffffffffffffffffffffffffffffffffffffffff1614610bbb576040517f08c379a0000000000000000000000000000000000000000000000000000000008152600401610bb290611a90565b60405180910390fd5b6009805480602002602001604051908101604052809291908181526020016000905b82821015610c8c57838290600052602060002090600202016040518060600160405290816000820160009054906101000a900473ffffffffffffffffffffffffffffffffffffffff1673ffffffffffffffffffffffffffffffffffffffff1673ffffffffffffffffffffffffffffffffffffffff1681526020016000820160149054906101000a900460ff1660ff1660ff16815260200160018201548152505081526020019060010190610bdd565b50505050905090565b6060600660003373ffffffffffffffffffffffffffffffffffffffff1673ffffffffffffffffffffffffffffffffffffffff16815260200190815260200160002060008460ff1660ff16815260200190815260200160002060009054906101000a900460ff16610d3a576040517f08c379a0000000000000000000000000000000000000000000000000000000008152600401610d3190611a30565b60405180910390fd5b81600260003373ffffffffffffffffffffffffffffffffffffffff1673ffffffffffffffffffffffffffffffffffffffff1681526020019081526020016000205411610dbb576040517f08c379a0000000000000000000000000000000000000000000000000000000008152600401610db2906119b0565b60405180910390fd5b600a60003373ffffffffffffffffffffffffffffffffffffffff1673ffffffffffffffffffffffffffffffffffffffff16815260200190815260200160002060008460ff1660ff16815260200190815260200160002060009054906101000a900460ff166110bc576001600a60003373ffffffffffffffffffffffffffffffffffffffff1673ffffffffffffffffffffffffffffffffffffffff16815260200190815260200160002060008560ff1660ff16815260200190815260200160002060006101000a81548160ff02191690831515021790555081600760003373ffffffffffffffffffffffffffffffffffffffff1673ffffffffffffffffffffffffffffffffffffffff16815260200190815260200160002060008560ff1660ff16815260200190815260200160002081905550600860003373ffffffffffffffffffffffffffffffffffffffff1673ffffffffffffffffffffffffffffffffffffffff16815260200190815260200160002060405180604001604052808560ff168152602001848152509080600181540180825580915050906001820390600052602060002090600202016000909192909190915060008201518160000160006101000a81548160ff021916908360ff16021790555060208201518160010155505050610fa56112bf565b60405180606001604052803373ffffffffffffffffffffffffffffffffffffffff1681526020018560ff1681526020018481525090506009819080600181540180825580915050906001820390600052602060002090600202016000909192909190915060008201518160000160006101000a81548173ffffffffffffffffffffffffffffffffffffffff021916908373ffffffffffffffffffffffffffffffffffffffff16021790555060208201518160000160146101000a81548160ff021916908360ff160217905550604082015181600101555050506040518060400160405280600781526020017f53756363657373000000000000000000000000000000000000000000000000008152509150506110f5565b6040518060400160405280600f81526020017f4475706c696361746520636c61696d000000000000000000000000000000000081525090505b92915050565b600660003373ffffffffffffffffffffffffffffffffffffffff1673ffffffffffffffffffffffffffffffffffffffff16815260200190815260200160002060008260ff1660ff16815260200190815260200160002060009054906101000a900460ff1661119e576040517f08c379a000000000000000000000000000000000000000000000000000000000815260040161119590611a30565b60405180910390fd5b600560003373ffffffffffffffffffffffffffffffffffffffff1673ffffffffffffffffffffffffffffffffffffffff16815260200190815260200160002060008260ff1660ff16815260200190815260200160002054341015611237576040517f08c379a000000000000000000000000000000000000000000000000000000000815260040161122e90611ab0565b60405180910390fd5b34600260003373ffffffffffffffffffffffffffffffffffffffff1673ffffffffffffffffffffffffffffffffffffffff1681526020019081526020016000205401600260003373ffffffffffffffffffffffffffffffffffffffff1673ffffffffffffffffffffffffffffffffffffffff1681526020019081526020016000208190555050565b6040518060600160405280600073ffffffffffffffffffffffffffffffffffffffff168152602001600060ff168152602001600081525090565b60008135905061130881611c51565b92915050565b60008135905061131d81611c68565b92915050565b60008135905061133281611c7f565b92915050565b6000806040838503121561134b57600080fd5b6000611359858286016112f9565b925050602061136a85828601611323565b9150509250929050565b60006020828403121561138657600080fd5b600061139484828501611323565b91505092915050565b600080604083850312156113b057600080fd5b60006113be85828601611323565b92505060206113cf8582860161130e565b9150509250929050565b60006113e5838361185b565b60408301905092915050565b60006113fd838361188a565b60408301905092915050565b600061141583836118b9565b60608301905092915050565b61142a81611bb2565b82525050565b600061143b82611b1b565b6114458185611b6e565b935061145083611aeb565b8060005b8381101561148157815161146888826113d9565b975061147383611b47565b925050600181019050611454565b5085935050505092915050565b600061149982611b26565b6114a38185611b7f565b93506114ae83611afb565b8060005b838110156114df5781516114c688826113f1565b97506114d183611b54565b9250506001810190506114b2565b5085935050505092915050565b60006114f782611b31565b6115018185611b90565b935061150c83611b0b565b8060005b8381101561153d5781516115248882611409565b975061152f83611b61565b925050600181019050611510565b5085935050505092915050565b600061155582611b3c565b61155f8185611ba1565b935061156f818560208601611c0d565b61157881611c40565b840191505092915050565b6000611590602e83611ba1565b91507f436c61696d20616d6f756e742063616e6e6f742065786365656420616363756d60008301527f756c61746564207072656d69756d0000000000000000000000000000000000006020830152604082019050919050565b60006115f6601583611ba1565b91507f4e6f207375636820636c61696d206578697374732100000000000000000000006000830152602082019050919050565b6000611636602283611ba1565b91507f4f6e6c7920506f6c6963652063616e2063616c6c20746869732066756e63746960008301527f6f6e0000000000000000000000000000000000000000000000000000000000006020830152604082019050919050565b600061169c601783611ba1565b91507f436c61696d20616c726561647920417070726f766564210000000000000000006000830152602082019050919050565b60006116dc601b83611ba1565b91507f496e737572616e6365206e6f74207075726368617365642079657400000000006000830152602082019050919050565b600061171c601e83611ba1565b91507f506f6c6963652043616e7420707572636861736520496e737572616e636500006000830152602082019050919050565b600061175c601b83611ba1565b91507f496e737572616e636520416c72656164792070757263686173656400000000006000830152602082019050919050565b600061179c602383611ba1565b91507f4f776e6c79206f776e6572732063616e2063616c6c20746869732066756e637460008301527f696f6e00000000000000000000000000000000000000000000000000000000006020830152604082019050919050565b6000611802602d83611ba1565b91507f5072656d69756d2073686f756c6420626520203e3d207072656d69756d20647560008301527f72696e67207075726368617365000000000000000000000000000000000000006020830152604082019050919050565b6040820160008201516118716000850182611919565b50602082015161188460208501826118fb565b50505050565b6040820160008201516118a06000850182611919565b5060208201516118b360208501826118fb565b50505050565b6060820160008201516118cf6000850182611421565b5060208201516118e26020850182611919565b5060408201516118f560408501826118fb565b50505050565b61190481611bf6565b82525050565b61191381611bf6565b82525050565b61192281611c00565b82525050565b600060208201905081810360008301526119428184611430565b905092915050565b60006020820190508181036000830152611964818461148e565b905092915050565b6000602082019050818103600083015261198681846114ec565b905092915050565b600060208201905081810360008301526119a8818461154a565b905092915050565b600060208201905081810360008301526119c981611583565b9050919050565b600060208201905081810360008301526119e9816115e9565b9050919050565b60006020820190508181036000830152611a0981611629565b9050919050565b60006020820190508181036000830152611a298161168f565b9050919050565b60006020820190508181036000830152611a49816116cf565b9050919050565b60006020820190508181036000830152611a698161170f565b9050919050565b60006020820190508181036000830152611a898161174f565b9050919050565b60006020820190508181036000830152611aa98161178f565b9050919050565b60006020820190508181036000830152611ac9816117f5565b9050919050565b6000602082019050611ae5600083018461190a565b92915050565b6000819050602082019050919050565b6000819050602082019050919050565b6000819050602082019050919050565b600081519050919050565b600081519050919050565b600081519050919050565b600081519050919050565b6000602082019050919050565b6000602082019050919050565b6000602082019050919050565b600082825260208201905092915050565b600082825260208201905092915050565b600082825260208201905092915050565b600082825260208201905092915050565b6000611bbd82611bd6565b9050919050565b6000611bcf82611bd6565b9050919050565b600073ffffffffffffffffffffffffffffffffffffffff82169050919050565b6000819050919050565b600060ff82169050919050565b60005b83811015611c2b578082015181840152602081019050611c10565b83811115611c3a576000848401525b50505050565b6000601f19601f8301169050919050565b611c5a81611bc4565b8114611c6557600080fd5b50565b611c7181611bf6565b8114611c7c57600080fd5b50565b611c8881611c00565b8114611c9357600080fd5b5056fea365627a7a72315820a695794a0cac9a66f3b0ba767a6d199999792b38141ca9b75faa4aa06b3cce5b6c6578706572696d656e74616cf564736f6c63430005100040",
  "source": "pragma solidity >=0.4.21 <0.7.0;\npragma experimental ABIEncoderV2;\n\ncontract Insurance {\n    address payable private owner;\n    address private police;\n    \n    mapping(address => uint256) accumulatedPremium;\n\n    mapping(uint256 => bool) nonce;\n    mapping(address => Entity[])private insuranceInfo;\n    mapping(address => mapping(uint8 => uint256)) private insurances;\n    mapping(address => mapping(uint8 => bool))private hasPurchased;\n    mapping(address => mapping(uint8 => uint256)) private claims;\n    mapping(address => Claim[]) userClaims;\n    StoreClaim[] private insuranceClaims;\n    mapping(address => mapping(uint8 => bool)) private hasClaimed;\n    mapping(address => mapping(uint8 => bool)) private isApproved;\n    \n    event ClaimNotification(address claimer, uint256 amount);\n    \n    constructor() public {\n        owner = msg.sender;\n        police = msg.sender;\n    }\n    \n    struct Entity{\n        uint8 eType;\n        uint256 premium;\n    }\n    \n    struct Claim{\n        uint8 eType;\n        uint256 amount;\n    }\n    \n    struct StoreClaim {\n        address sender;\n        uint8 eType;\n        uint256 amount;\n    }\n    \n    modifier isPolice(){\n        require(msg.sender == police,\"Only Police can call this function\");\n        _;\n    }\n    \n    modifier isNotPolice(){\n        require(msg.sender != police,\"Police Cant purchase Insurance\");\n        _;\n    }\n    \n    modifier isOwner(){\n        require(msg.sender == owner, \"Ownly owners can call this function\");\n        _;\n    }\n    \n    function buyInsurance(uint8 eType, uint256 premium)\n    public isNotPolice\n    returns (string memory){\n        require(!hasPurchased[msg.sender][eType], \"Insurance Already purchased\");\n        insurances[msg.sender][eType] = premium;\n        hasPurchased[msg.sender][eType] = true;\n        insuranceInfo[msg.sender].push(Entity(eType,premium));\n    }\n    \n    function payPremium(uint8 eType)\n    public payable{\n        require(hasPurchased[msg.sender][eType],\"Insurance not purchased yet\");\n        require(msg.value >= insurances[msg.sender][eType], \"Premium should be  >= premium during purchase\");\n        accumulatedPremium[msg.sender] = accumulatedPremium[msg.sender] +msg.value;\n    }\n    \n    function claimInsurance(uint8 eType, uint256 amount)\n    public \n    returns(string memory){\n        require(hasPurchased[msg.sender][eType],\"Insurance not purchased yet\");\n        require(accumulatedPremium[msg.sender] > amount, \"Claim amount cannot exceed accumulated premium\");\n        if(!hasClaimed[msg.sender][eType]){\n            hasClaimed[msg.sender][eType] = true;\n            claims[msg.sender][eType] = amount;\n            userClaims[msg.sender].push(Claim(eType,amount));\n            StoreClaim memory storeClaim = StoreClaim(msg.sender,eType,amount);\n            insuranceClaims.push(storeClaim);\n            return \"Success\";\n        }\n        else\n            return \"Duplicate claim\";\n    }\n    \n    function approveInsurance(address payable claimer, uint8 eType)\n    public isPolice\n    returns (string memory)\n    {\n        require(hasClaimed[claimer][eType],\"No such claim exists!\");\n        require(!isApproved[claimer][eType],\"Claim already Approved!\");\n            isApproved[claimer][eType] = true;\n            uint256 amount = claims[claimer][eType];\n            claimer.transfer(amount * 7/10);\n            address(msg.sender).transfer(amount * 1 / 10);\n            delete claims[claimer][eType];\n            return \"Success\";\n    }\n    \n    function getClaims()\n    public view isOwner\n    returns (StoreClaim[] memory){\n        return insuranceClaims;\n    }\n    \n    function getUserClaims()\n    public view \n    returns (Claim[] memory){\n        return userClaims[msg.sender];\n    }\n    \n    \n    function getBalance()\n    public view\n    returns (uint256){\n        return address(msg.sender).balance;\n    }\n    \n    function closeCompany()\n    public isOwner {\n        selfdestruct(owner);\n    }\n    \n    function getInsurances()\n    public view \n    returns (Entity[] memory){\n        return insuranceInfo[msg.sender];\n    }\n    \n}",
  "sourcePath": "/media/arjun/Miscellaneous/bchain/simple-inc/contracts/Insurance.sol",
  "compiler": {
    "name": "solc",
    "version": "0.5.16+commit.9c3226ce.Emscripten.clang"
  },
  "schemaVersion": "3.2.3",
  "updatedAt": "2020-08-14T21:59:46.137Z",
  "networkType": "ethereum",
  "devdoc": {
    "methods": {}
  },
  "userdoc": {
    "methods": {}
  }
}