{
  "contractName": "Insurance2",
  "abi": [
    {
      "inputs": [
        {
          "internalType": "address",
          "name": "_police",
          "type": "address"
        }
      ],
      "payable": false,
      "stateMutability": "nonpayable",
      "type": "constructor"
    },
    {
      "constant": false,
      "inputs": [
        {
          "internalType": "string",
          "name": "name",
          "type": "string"
        }
      ],
      "name": "addProduct",
      "outputs": [],
      "payable": false,
      "stateMutability": "nonpayable",
      "type": "function"
    },
    {
      "constant": true,
      "inputs": [],
      "name": "getProducts",
      "outputs": [
        {
          "components": [
            {
              "internalType": "string",
              "name": "name",
              "type": "string"
            }
          ],
          "internalType": "struct Insurance2.Product[]",
          "name": "",
          "type": "tuple[]"
        }
      ],
      "payable": false,
      "stateMutability": "view",
      "type": "function"
    },
    {
      "constant": true,
      "inputs": [],
      "name": "getMyInsurance",
      "outputs": [
        {
          "components": [
            {
              "internalType": "bool",
              "name": "isPurchased",
              "type": "bool"
            },
            {
              "internalType": "bool",
              "name": "isClaimed",
              "type": "bool"
            },
            {
              "internalType": "uint256",
              "name": "premium",
              "type": "uint256"
            },
            {
              "internalType": "uint256",
              "name": "amount",
              "type": "uint256"
            }
          ],
          "internalType": "struct Insurance2.InsuranceDetails[]",
          "name": "",
          "type": "tuple[]"
        }
      ],
      "payable": false,
      "stateMutability": "view",
      "type": "function"
    },
    {
      "constant": true,
      "inputs": [],
      "name": "getMyClaims",
      "outputs": [
        {
          "components": [
            {
              "internalType": "uint8",
              "name": "productIndex",
              "type": "uint8"
            },
            {
              "internalType": "uint256",
              "name": "amount",
              "type": "uint256"
            },
            {
              "internalType": "address",
              "name": "claimedBy",
              "type": "address"
            },
            {
              "internalType": "bool",
              "name": "isApproved",
              "type": "bool"
            },
            {
              "internalType": "bool",
              "name": "isRejected",
              "type": "bool"
            }
          ],
          "internalType": "struct Insurance2.Claim[]",
          "name": "",
          "type": "tuple[]"
        }
      ],
      "payable": false,
      "stateMutability": "view",
      "type": "function"
    },
    {
      "constant": true,
      "inputs": [],
      "name": "getAllClaims",
      "outputs": [
        {
          "components": [
            {
              "internalType": "uint8",
              "name": "productIndex",
              "type": "uint8"
            },
            {
              "internalType": "uint256",
              "name": "amount",
              "type": "uint256"
            },
            {
              "internalType": "address",
              "name": "claimedBy",
              "type": "address"
            },
            {
              "internalType": "bool",
              "name": "isApproved",
              "type": "bool"
            },
            {
              "internalType": "bool",
              "name": "isRejected",
              "type": "bool"
            }
          ],
          "internalType": "struct Insurance2.Claim[]",
          "name": "",
          "type": "tuple[]"
        }
      ],
      "payable": false,
      "stateMutability": "view",
      "type": "function"
    },
    {
      "constant": false,
      "inputs": [
        {
          "internalType": "uint8",
          "name": "productIndex",
          "type": "uint8"
        },
        {
          "internalType": "uint256",
          "name": "premium",
          "type": "uint256"
        }
      ],
      "name": "buyInsurance",
      "outputs": [],
      "payable": false,
      "stateMutability": "nonpayable",
      "type": "function"
    },
    {
      "constant": false,
      "inputs": [
        {
          "internalType": "uint8",
          "name": "productIndex",
          "type": "uint8"
        }
      ],
      "name": "payPremium",
      "outputs": [],
      "payable": true,
      "stateMutability": "payable",
      "type": "function"
    },
    {
      "constant": false,
      "inputs": [
        {
          "internalType": "uint8",
          "name": "productIndex",
          "type": "uint8"
        },
        {
          "internalType": "uint256",
          "name": "amount",
          "type": "uint256"
        }
      ],
      "name": "claimInsurance",
      "outputs": [],
      "payable": false,
      "stateMutability": "nonpayable",
      "type": "function"
    },
    {
      "constant": false,
      "inputs": [
        {
          "internalType": "uint8",
          "name": "claimId",
          "type": "uint8"
        }
      ],
      "name": "approveInsurance",
      "outputs": [],
      "payable": false,
      "stateMutability": "nonpayable",
      "type": "function"
    },
    {
      "constant": false,
      "inputs": [
        {
          "internalType": "uint8",
          "name": "claimId",
          "type": "uint8"
        }
      ],
      "name": "rejectInsurance",
      "outputs": [],
      "payable": false,
      "stateMutability": "nonpayable",
      "type": "function"
    },
    {
      "constant": false,
      "inputs": [],
      "name": "closeCompany",
      "outputs": [],
      "payable": false,
      "stateMutability": "nonpayable",
      "type": "function"
    },
    {
      "constant": true,
      "inputs": [],
      "name": "checkUser",
      "outputs": [
        {
          "internalType": "string",
          "name": "",
          "type": "string"
        }
      ],
      "payable": false,
      "stateMutability": "view",
      "type": "function"
    },
    {
      "constant": false,
      "inputs": [],
      "name": "addFunds",
      "outputs": [],
      "payable": true,
      "stateMutability": "payable",
      "type": "function"
    },
    {
      "constant": true,
      "inputs": [],
      "name": "getBalance",
      "outputs": [
        {
          "internalType": "uint256",
          "name": "",
          "type": "uint256"
        }
      ],
      "payable": false,
      "stateMutability": "view",
      "type": "function"
    }
  ],
  "bytecode": "0x60806040523480156200001157600080fd5b50604051620027e2380380620027e28339818101604052620000379190810190620000d6565b336000806101000a81548173ffffffffffffffffffffffffffffffffffffffff021916908373ffffffffffffffffffffffffffffffffffffffff16021790555080600160006101000a81548173ffffffffffffffffffffffffffffffffffffffff021916908373ffffffffffffffffffffffffffffffffffffffff1602179055505062000150565b600081519050620000d08162000136565b92915050565b600060208284031215620000e957600080fd5b6000620000f984828501620000bf565b91505092915050565b60006200010f8262000116565b9050919050565b600073ffffffffffffffffffffffffffffffffffffffff82169050919050565b620001418162000102565b81146200014d57600080fd5b50565b61268280620001606000396000f3fe6080604052600436106100dd5760003560e01c8063a26759cb1161007f578063c29b2f2011610059578063c29b2f2014610255578063ccf2a0a314610280578063dfe00c51146102a9578063e28a392a146102d2576100dd565b8063a26759cb146101f5578063bf5969af146101ff578063c15625471461022a576100dd565b80635b23c27d116100bb5780635b23c27d1461014d5780635ca71cbe146101785780636a772b68146101a35780637500ad7b146101cc576100dd565b8063068ffb31146100e257806312065fe0146100f95780633078eb4014610124575b600080fd5b3480156100ee57600080fd5b506100f76102ee565b005b34801561010557600080fd5b5061010e6103b7565b60405161011b9190612412565b60405180910390f35b34801561013057600080fd5b5061014b60048036036101469190810190611c03565b61044e565b005b34801561015957600080fd5b506101626105c9565b60405161016f919061224a565b60405180910390f35b34801561018457600080fd5b5061018d6107c2565b60405161019a919061224a565b60405180910390f35b3480156101af57600080fd5b506101ca60048036036101c59190810190611bda565b61099e565b005b3480156101d857600080fd5b506101f360048036036101ee9190810190611bda565b610d23565b005b6101fd610ff9565b005b34801561020b57600080fd5b5061021461108a565b604051610221919061226c565b60405180910390f35b34801561023657600080fd5b5061023f6111cb565b60405161024c91906122b0565b60405180910390f35b34801561026157600080fd5b5061026a61132e565b604051610277919061228e565b60405180910390f35b34801561028c57600080fd5b506102a760048036036102a29190810190611c03565b61142b565b005b3480156102b557600080fd5b506102d060048036036102cb9190810190611b99565b611716565b005b6102ec60048036036102e79190810190611bda565b611800565b005b6000809054906101000a900473ffffffffffffffffffffffffffffffffffffffff1673ffffffffffffffffffffffffffffffffffffffff163373ffffffffffffffffffffffffffffffffffffffff161461037d576040517f08c379a0000000000000000000000000000000000000000000000000000000008152600401610374906122f2565b60405180910390fd5b6000809054906101000a900473ffffffffffffffffffffffffffffffffffffffff1673ffffffffffffffffffffffffffffffffffffffff16ff5b60008060009054906101000a900473ffffffffffffffffffffffffffffffffffffffff1673ffffffffffffffffffffffffffffffffffffffff163373ffffffffffffffffffffffffffffffffffffffff1614610448576040517f08c379a000000000000000000000000000000000000000000000000000000000815260040161043f906122f2565b60405180910390fd5b47905090565b600460003373ffffffffffffffffffffffffffffffffffffffff1673ffffffffffffffffffffffffffffffffffffffff16815260200190815260200160002060008360ff1660ff16815260200190815260200160002060000160009054906101000a900460ff16156104f5576040517f08c379a00000000000000000000000000000000000000000000000000000000081526004016104ec906123d2565b60405180910390fd5b80600460003373ffffffffffffffffffffffffffffffffffffffff1673ffffffffffffffffffffffffffffffffffffffff16815260200190815260200160002060008460ff1660ff168152602001908152602001600020600101819055506001600460003373ffffffffffffffffffffffffffffffffffffffff1673ffffffffffffffffffffffffffffffffffffffff16815260200190815260200160002060008460ff1660ff16815260200190815260200160002060000160006101000a81548160ff0219169083151502179055505050565b60606000809054906101000a900473ffffffffffffffffffffffffffffffffffffffff1673ffffffffffffffffffffffffffffffffffffffff163373ffffffffffffffffffffffffffffffffffffffff1614806106735750600160009054906101000a900473ffffffffffffffffffffffffffffffffffffffff1673ffffffffffffffffffffffffffffffffffffffff163373ffffffffffffffffffffffffffffffffffffffff16145b6106b2576040517f08c379a00000000000000000000000000000000000000000000000000000000081526004016106a990612352565b60405180910390fd5b6003805480602002602001604051908101604052809291908181526020016000905b828210156107b957838290600052602060002090600302016040518060a00160405290816000820160009054906101000a900460ff1660ff1660ff168152602001600182015481526020016002820160009054906101000a900473ffffffffffffffffffffffffffffffffffffffff1673ffffffffffffffffffffffffffffffffffffffff1673ffffffffffffffffffffffffffffffffffffffff1681526020016002820160149054906101000a900460ff161515151581526020016002820160159054906101000a900460ff161515151581525050815260200190600101906106d4565b50505050905090565b60608060038054905060405190808252806020026020018201604052801561080457816020015b6107f16119fe565b8152602001906001900390816107e95790505b509050600080905060008090505b600380549050811015610995573373ffffffffffffffffffffffffffffffffffffffff166003828154811061084357fe5b906000526020600020906003020160020160009054906101000a900473ffffffffffffffffffffffffffffffffffffffff1673ffffffffffffffffffffffffffffffffffffffff161415610988576003818154811061089e57fe5b90600052602060002090600302016040518060a00160405290816000820160009054906101000a900460ff1660ff1660ff168152602001600182015481526020016002820160009054906101000a900473ffffffffffffffffffffffffffffffffffffffff1673ffffffffffffffffffffffffffffffffffffffff1673ffffffffffffffffffffffffffffffffffffffff1681526020016002820160149054906101000a900460ff161515151581526020016002820160159054906101000a900460ff16151515158152505083838151811061097657fe5b60200260200101819052506001820191505b8080600101915050610812565b50819250505090565b600160009054906101000a900473ffffffffffffffffffffffffffffffffffffffff1673ffffffffffffffffffffffffffffffffffffffff163373ffffffffffffffffffffffffffffffffffffffff1614610a2e576040517f08c379a0000000000000000000000000000000000000000000000000000000008152600401610a2590612372565b60405180910390fd5b8060ff1660038054905011610a78576040517f08c379a0000000000000000000000000000000000000000000000000000000008152600401610a6f90612312565b60405180910390fd5b60038160ff1681548110610a8857fe5b906000526020600020906003020160020160149054906101000a900460ff1615610ae7576040517f08c379a0000000000000000000000000000000000000000000000000000000008152600401610ade906123f2565b60405180910390fd5b60038160ff1681548110610af757fe5b906000526020600020906003020160020160159054906101000a900460ff1615610b56576040517f08c379a0000000000000000000000000000000000000000000000000000000008152600401610b4d906122d2565b60405180910390fd5b600160038260ff1681548110610b6857fe5b906000526020600020906003020160020160146101000a81548160ff02191690831515021790555060006004600060038460ff1681548110610ba657fe5b906000526020600020906003020160020160009054906101000a900473ffffffffffffffffffffffffffffffffffffffff1673ffffffffffffffffffffffffffffffffffffffff1673ffffffffffffffffffffffffffffffffffffffff168152602001908152602001600020600060038460ff1681548110610c2457fe5b906000526020600020906003020160000160009054906101000a900460ff1660ff1660ff16815260200190815260200160002060000160016101000a81548160ff021916908315150217905550600060038260ff1681548110610c8357fe5b906000526020600020906003020160020160009054906101000a900473ffffffffffffffffffffffffffffffffffffffff1690508073ffffffffffffffffffffffffffffffffffffffff166108fc60038460ff1681548110610ce157fe5b9060005260206000209060030201600101549081150290604051600060405180830381858888f19350505050158015610d1e573d6000803e3d6000fd5b505050565b600160009054906101000a900473ffffffffffffffffffffffffffffffffffffffff1673ffffffffffffffffffffffffffffffffffffffff163373ffffffffffffffffffffffffffffffffffffffff1614610db3576040517f08c379a0000000000000000000000000000000000000000000000000000000008152600401610daa90612372565b60405180910390fd5b8060ff1660038054905011610dfd576040517f08c379a0000000000000000000000000000000000000000000000000000000008152600401610df490612312565b60405180910390fd5b60038160ff1681548110610e0d57fe5b906000526020600020906003020160020160149054906101000a900460ff1615610e6c576040517f08c379a0000000000000000000000000000000000000000000000000000000008152600401610e63906123f2565b60405180910390fd5b60038160ff1681548110610e7c57fe5b906000526020600020906003020160020160159054906101000a900460ff1615610edb576040517f08c379a0000000000000000000000000000000000000000000000000000000008152600401610ed2906122d2565b60405180910390fd5b600160038260ff1681548110610eed57fe5b906000526020600020906003020160020160156101000a81548160ff02191690831515021790555060006004600060038460ff1681548110610f2b57fe5b906000526020600020906003020160020160009054906101000a900473ffffffffffffffffffffffffffffffffffffffff1673ffffffffffffffffffffffffffffffffffffffff1673ffffffffffffffffffffffffffffffffffffffff168152602001908152602001600020600060038460ff1681548110610fa957fe5b906000526020600020906003020160000160009054906101000a900460ff1660ff1660ff16815260200190815260200160002060000160016101000a81548160ff02191690831515021790555050565b6000809054906101000a900473ffffffffffffffffffffffffffffffffffffffff1673ffffffffffffffffffffffffffffffffffffffff163373ffffffffffffffffffffffffffffffffffffffff1614611088576040517f08c379a000000000000000000000000000000000000000000000000000000000815260040161107f906122f2565b60405180910390fd5b565b6060806002805490506040519080825280602002602001820160405280156110cc57816020015b6110b9611a4a565b8152602001906001900390816110b15790505b509050600080905060008090505b6002805490508160ff1610156111c257600460003373ffffffffffffffffffffffffffffffffffffffff1673ffffffffffffffffffffffffffffffffffffffff16815260200190815260200160002060008260ff1660ff1681526020019081526020016000206040518060800160405290816000820160009054906101000a900460ff161515151581526020016000820160019054906101000a900460ff1615151515815260200160018201548152602001600282015481525050838360ff16815181106111a457fe5b602002602001018190525060018201915080806001019150506110da565b50819250505090565b60606000809054906101000a900473ffffffffffffffffffffffffffffffffffffffff1673ffffffffffffffffffffffffffffffffffffffff163373ffffffffffffffffffffffffffffffffffffffff16141561125f576040518060400160405280600581526020017f6f776e6572000000000000000000000000000000000000000000000000000000815250905061132b565b600160009054906101000a900473ffffffffffffffffffffffffffffffffffffffff1673ffffffffffffffffffffffffffffffffffffffff163373ffffffffffffffffffffffffffffffffffffffff1614156112f2576040518060400160405280600681526020017f706f6c6963650000000000000000000000000000000000000000000000000000815250905061132b565b6040518060400160405280600481526020017f757365720000000000000000000000000000000000000000000000000000000081525090505b90565b60606002805480602002602001604051908101604052809291908181526020016000905b8282101561142257838290600052602060002001604051806020016040529081600082018054600181600116156101000203166002900480601f01602080910402602001604051908101604052809291908181526020018280546001816001161561010002031660029004801561140a5780601f106113df5761010080835404028352916020019161140a565b820191906000526020600020905b8154815290600101906020018083116113ed57829003601f168201915b50505050508152505081526020019060010190611352565b50505050905090565b600460003373ffffffffffffffffffffffffffffffffffffffff1673ffffffffffffffffffffffffffffffffffffffff16815260200190815260200160002060008360ff1660ff16815260200190815260200160002060000160009054906101000a900460ff166114d1576040517f08c379a00000000000000000000000000000000000000000000000000000000081526004016114c8906123b2565b60405180910390fd5b600460003373ffffffffffffffffffffffffffffffffffffffff1673ffffffffffffffffffffffffffffffffffffffff16815260200190815260200160002060008360ff1660ff16815260200190815260200160002060000160019054906101000a900460ff1615611578576040517f08c379a000000000000000000000000000000000000000000000000000000000815260040161156f90612332565b60405180910390fd5b6001600460003373ffffffffffffffffffffffffffffffffffffffff1673ffffffffffffffffffffffffffffffffffffffff16815260200190815260200160002060008460ff1660ff16815260200190815260200160002060000160016101000a81548160ff02191690831515021790555060036040518060a001604052808460ff1681526020018381526020013373ffffffffffffffffffffffffffffffffffffffff168152602001600015158152602001600015158152509080600181540180825580915050906001820390600052602060002090600302016000909192909190915060008201518160000160006101000a81548160ff021916908360ff1602179055506020820151816001015560408201518160020160006101000a81548173ffffffffffffffffffffffffffffffffffffffff021916908373ffffffffffffffffffffffffffffffffffffffff16021790555060608201518160020160146101000a81548160ff02191690831515021790555060808201518160020160156101000a81548160ff0219169083151502179055505050505050565b6000809054906101000a900473ffffffffffffffffffffffffffffffffffffffff1673ffffffffffffffffffffffffffffffffffffffff163373ffffffffffffffffffffffffffffffffffffffff16146117a5576040517f08c379a000000000000000000000000000000000000000000000000000000000815260040161179c906122f2565b60405180910390fd5b600260405180602001604052808381525090806001815401808255809150509060018203906000526020600020016000909192909190915060008201518160000190805190602001906117f9929190611a76565b5050505050565b600460003373ffffffffffffffffffffffffffffffffffffffff1673ffffffffffffffffffffffffffffffffffffffff16815260200190815260200160002060008260ff1660ff16815260200190815260200160002060000160009054906101000a900460ff166118a6576040517f08c379a000000000000000000000000000000000000000000000000000000000815260040161189d906123b2565b60405180910390fd5b600460003373ffffffffffffffffffffffffffffffffffffffff1673ffffffffffffffffffffffffffffffffffffffff16815260200190815260200160002060008260ff1660ff16815260200190815260200160002060010154341015611942576040517f08c379a000000000000000000000000000000000000000000000000000000000815260040161193990612392565b60405180910390fd5b34600460003373ffffffffffffffffffffffffffffffffffffffff1673ffffffffffffffffffffffffffffffffffffffff16815260200190815260200160002060008360ff1660ff1681526020019081526020016000206002015401600460003373ffffffffffffffffffffffffffffffffffffffff1673ffffffffffffffffffffffffffffffffffffffff16815260200190815260200160002060008360ff1660ff1681526020019081526020016000206002018190555050565b6040518060a00160405280600060ff16815260200160008152602001600073ffffffffffffffffffffffffffffffffffffffff1681526020016000151581526020016000151581525090565b604051806080016040528060001515815260200160001515815260200160008152602001600081525090565b828054600181600116156101000203166002900490600052602060002090601f016020900481019282601f10611ab757805160ff1916838001178555611ae5565b82800160010185558215611ae5579182015b82811115611ae4578251825591602001919060010190611ac9565b5b509050611af29190611af6565b5090565b611b1891905b80821115611b14576000816000905550600101611afc565b5090565b90565b600082601f830112611b2c57600080fd5b8135611b3f611b3a8261245a565b61242d565b91508082526020830160208301858383011115611b5b57600080fd5b611b668382846125be565b50505092915050565b600081359050611b7e81612611565b92915050565b600081359050611b9381612628565b92915050565b600060208284031215611bab57600080fd5b600082013567ffffffffffffffff811115611bc557600080fd5b611bd184828501611b1b565b91505092915050565b600060208284031215611bec57600080fd5b6000611bfa84828501611b84565b91505092915050565b60008060408385031215611c1657600080fd5b6000611c2485828601611b84565b9250506020611c3585828601611b6f565b9150509250929050565b6000611c4b8383612136565b60a08301905092915050565b6000611c63838361219e565b60808301905092915050565b6000611c7b83836121f3565b905092915050565b611c8c81612569565b82525050565b6000611c9d826124b6565b611ca78185612514565b9350611cb283612486565b8060005b83811015611ce3578151611cca8882611c3f565b9750611cd5836124ed565b925050600181019050611cb6565b5085935050505092915050565b6000611cfb826124c1565b611d058185612525565b9350611d1083612496565b8060005b83811015611d41578151611d288882611c57565b9750611d33836124fa565b925050600181019050611d14565b5085935050505092915050565b6000611d59826124cc565b611d638185612536565b935083602082028501611d75856124a6565b8060005b85811015611db15784840389528151611d928582611c6f565b9450611d9d83612507565b925060208a01995050600181019050611d79565b50829750879550505050505092915050565b611dcc8161257b565b82525050565b6000611ddd826124e2565b611de78185612558565b9350611df78185602086016125cd565b611e0081612600565b840191505092915050565b6000611e16826124d7565b611e208185612547565b9350611e308185602086016125cd565b611e3981612600565b840191505092915050565b6000611e51601783612558565b91507f436c61696d20616c72656164792072656a6563746564210000000000000000006000830152602082019050919050565b6000611e91602283612558565b91507f4f6e6c79206f776e6572732063616e2063616c6c20746869732066756e63746960008301527f6f6e0000000000000000000000000000000000000000000000000000000000006020830152604082019050919050565b6000611ef7601583612558565b91507f4e6f207375636820636c61696d206578697374732100000000000000000000006000830152602082019050919050565b6000611f37601983612558565b91507f496e737572616e636520616c726561647920636c61696d6564000000000000006000830152602082019050919050565b6000611f77602c83612558565b91507f4f6e6c79206f776e657273206f7220706f6c6963652063616e2063616c6c207460008301527f6869732066756e6374696f6e00000000000000000000000000000000000000006020830152604082019050919050565b6000611fdd602283612558565b91507f4f6e6c7920506f6c6963652063616e2063616c6c20746869732066756e63746960008301527f6f6e0000000000000000000000000000000000000000000000000000000000006020830152604082019050919050565b6000612043600b83612558565b91507f454d49206973206c6573730000000000000000000000000000000000000000006000830152602082019050919050565b6000612083601b83612558565b91507f496e737572616e6365206e6f74207075726368617365642079657400000000006000830152602082019050919050565b60006120c3601b83612558565b91507f496e737572616e636520616c72656164792070757263686173656400000000006000830152602082019050919050565b6000612103601783612558565b91507f436c61696d20616c726561647920617070726f766564210000000000000000006000830152602082019050919050565b60a08201600082015161214c600085018261223b565b50602082015161215f602085018261221d565b5060408201516121726040850182611c83565b5060608201516121856060850182611dc3565b5060808201516121986080850182611dc3565b50505050565b6080820160008201516121b46000850182611dc3565b5060208201516121c76020850182611dc3565b5060408201516121da604085018261221d565b5060608201516121ed606085018261221d565b50505050565b600060208301600083015184820360008601526122108282611e0b565b9150508091505092915050565b612226816125a7565b82525050565b612235816125a7565b82525050565b612244816125b1565b82525050565b600060208201905081810360008301526122648184611c92565b905092915050565b600060208201905081810360008301526122868184611cf0565b905092915050565b600060208201905081810360008301526122a88184611d4e565b905092915050565b600060208201905081810360008301526122ca8184611dd2565b905092915050565b600060208201905081810360008301526122eb81611e44565b9050919050565b6000602082019050818103600083015261230b81611e84565b9050919050565b6000602082019050818103600083015261232b81611eea565b9050919050565b6000602082019050818103600083015261234b81611f2a565b9050919050565b6000602082019050818103600083015261236b81611f6a565b9050919050565b6000602082019050818103600083015261238b81611fd0565b9050919050565b600060208201905081810360008301526123ab81612036565b9050919050565b600060208201905081810360008301526123cb81612076565b9050919050565b600060208201905081810360008301526123eb816120b6565b9050919050565b6000602082019050818103600083015261240b816120f6565b9050919050565b6000602082019050612427600083018461222c565b92915050565b6000604051905081810181811067ffffffffffffffff8211171561245057600080fd5b8060405250919050565b600067ffffffffffffffff82111561247157600080fd5b601f19601f8301169050602081019050919050565b6000819050602082019050919050565b6000819050602082019050919050565b6000819050602082019050919050565b600081519050919050565b600081519050919050565b600081519050919050565b600081519050919050565b600081519050919050565b6000602082019050919050565b6000602082019050919050565b6000602082019050919050565b600082825260208201905092915050565b600082825260208201905092915050565b600082825260208201905092915050565b600082825260208201905092915050565b600082825260208201905092915050565b600061257482612587565b9050919050565b60008115159050919050565b600073ffffffffffffffffffffffffffffffffffffffff82169050919050565b6000819050919050565b600060ff82169050919050565b82818337600083830152505050565b60005b838110156125eb5780820151818401526020810190506125d0565b838111156125fa576000848401525b50505050565b6000601f19601f8301169050919050565b61261a816125a7565b811461262557600080fd5b50565b612631816125b1565b811461263c57600080fd5b5056fea365627a7a72315820daff8f7bd5ce4c076b7bc87def2592a13bc6bfa4d11e8af5be01fb80eebfa03f6c6578706572696d656e74616cf564736f6c63430005100040",
  "source": "pragma solidity >=0.4.21 <0.7.0;\r\npragma experimental ABIEncoderV2;\r\n\r\ncontract Insurance2 {\r\n    address payable private owner;\r\n    address private police;\r\n\r\n    Product[] private products;\r\n    Claim[] private allClaims;\r\n    mapping(address => mapping(uint8 => InsuranceDetails)) private insurance;\r\n    \r\n    constructor(address _police) public {\r\n        owner = msg.sender;\r\n        police = _police;\r\n    }\r\n    \r\n    struct Product {\r\n        string name;\r\n    }\r\n    \r\n    struct Claim {\r\n        uint8 productIndex;\r\n        uint256 amount;\r\n        address claimedBy;\r\n        bool isApproved;\r\n        bool isRejected;\r\n    }\r\n\r\n    struct InsuranceDetails {\r\n        bool isPurchased;\r\n        bool isClaimed;\r\n        uint256 premium;\r\n        uint256 amount;\r\n    }\r\n    \r\n    modifier isPolice() {\r\n        require(msg.sender == police,\"Only Police can call this function\");\r\n        _;\r\n    }\r\n    \r\n    modifier isNotPolice() {\r\n        require(msg.sender != police,\"Police Cant purchase Insurance\");\r\n        _;\r\n    }\r\n    \r\n    modifier isOwner() {\r\n        require(msg.sender == owner, \"Only owners can call this function\");\r\n        _;\r\n    }\r\n\r\n    modifier isPolicyOrOwner() {\r\n        require(msg.sender == owner || msg.sender == police, \"Only owners or police can call this function\");\r\n        _;\r\n    }\r\n\r\n    function addProduct(string memory name) public isOwner {\r\n        products.push(Product(name));\r\n    }\r\n\r\n    function getProducts() public view returns(Product[] memory) {\r\n        return products;\r\n    }\r\n\r\n    function getMyInsurance() public view returns(InsuranceDetails[] memory) {\r\n        InsuranceDetails[] memory tempArray = new InsuranceDetails[](products.length);\r\n        uint8 k = 0;\r\n        for (uint8 i=0; i<products.length; i++) {\r\n            tempArray[k] = insurance[msg.sender][i];\r\n            k = k + 1;\r\n        }\r\n        return tempArray;\r\n    }\r\n\r\n    function getMyClaims() public view returns(Claim[] memory) {\r\n        Claim[] memory tempClaims = new Claim[](allClaims.length);\r\n        uint k = 0;\r\n        for (uint i=0; i<allClaims.length; i++) {\r\n            if (allClaims[i].claimedBy == msg.sender) {\r\n                tempClaims[k] = allClaims[i];\r\n                k = k + 1;\r\n            }\r\n        }\r\n        return tempClaims;\r\n    }\r\n\r\n    function getAllClaims() public view isPolicyOrOwner returns(Claim[] memory) {\r\n        return allClaims;\r\n    }\r\n    \r\n    function buyInsurance(uint8 productIndex, uint256 premium) public {\r\n        require(!insurance[msg.sender][productIndex].isPurchased, \"Insurance already purchased\");\r\n        insurance[msg.sender][productIndex].premium = premium;\r\n        insurance[msg.sender][productIndex].isPurchased = true;\r\n    }\r\n    \r\n    function payPremium(uint8 productIndex) public payable {\r\n        require(insurance[msg.sender][productIndex].isPurchased, \"Insurance not purchased yet\");\r\n        require(msg.value >= insurance[msg.sender][productIndex].premium, \"EMI is less\");\r\n        insurance[msg.sender][productIndex].amount = insurance[msg.sender][productIndex].amount + msg.value;\r\n    }\r\n    \r\n    function claimInsurance(uint8 productIndex, uint256 amount) public {\r\n        require(insurance[msg.sender][productIndex].isPurchased, \"Insurance not purchased yet\");\r\n        require(!insurance[msg.sender][productIndex].isClaimed, \"Insurance already claimed\");\r\n        insurance[msg.sender][productIndex].isClaimed = true;\r\n        allClaims.push(Claim(productIndex, amount, msg.sender, false, false));\r\n    }\r\n    \r\n    function approveInsurance(uint8 claimId) public isPolice {\r\n        require(allClaims.length > claimId, \"No such claim exists!\");\r\n        require(!allClaims[claimId].isApproved, \"Claim already approved!\");\r\n        require(!allClaims[claimId].isRejected, \"Claim already rejected!\");\r\n        allClaims[claimId].isApproved = true;\r\n        insurance[allClaims[claimId].claimedBy][allClaims[claimId].productIndex].isClaimed = false;\r\n        address payable claimer = address(uint160(allClaims[claimId].claimedBy));\r\n        claimer.transfer(allClaims[claimId].amount);\r\n    }\r\n\r\n    function rejectInsurance(uint8 claimId) public isPolice {\r\n        require(allClaims.length > claimId, \"No such claim exists!\");\r\n        require(!allClaims[claimId].isApproved, \"Claim already approved!\");\r\n        require(!allClaims[claimId].isRejected, \"Claim already rejected!\");\r\n        allClaims[claimId].isRejected = true;\r\n        insurance[allClaims[claimId].claimedBy][allClaims[claimId].productIndex].isClaimed = false;\r\n    }\r\n    \r\n    function closeCompany() public isOwner {\r\n        selfdestruct(owner);\r\n    }\r\n    \r\n    function checkUser() public view returns (string memory){\r\n        if(msg.sender == owner)\r\n            return \"owner\";\r\n        if(msg.sender == police)\r\n            return \"police\";\r\n        else \r\n            return \"user\";\r\n    }\r\n    \r\n    function addFunds() public payable isOwner {\r\n        //\r\n    }\r\n    \r\n    function getBalance() public view isOwner returns (uint256) {\r\n        return address(this).balance;\r\n    }\r\n\r\n}",
  "sourcePath": "/media/arjun/Miscellaneous/bchain/simple-inc/contracts/Insurance2.sol",
  "compiler": {
    "name": "solc",
    "version": "0.5.16+commit.9c3226ce.Emscripten.clang"
  },
  "schemaVersion": "3.2.3",
  "updatedAt": "2020-08-16T07:25:39.005Z",
  "networkType": "ethereum",
  "devdoc": {
    "methods": {}
  },
  "userdoc": {
    "methods": {}
  }
}