{
  "contractName": "Insurance",
  "abi": [
    {
      "inputs": [
        {
          "internalType": "address",
          "name": "_police",
          "type": "address"
        }
      ],
      "payable": false,
      "stateMutability": "nonpayable",
      "type": "constructor"
    },
    {
      "anonymous": false,
      "inputs": [
        {
          "indexed": false,
          "internalType": "address",
          "name": "claimer",
          "type": "address"
        },
        {
          "indexed": false,
          "internalType": "uint256",
          "name": "amount",
          "type": "uint256"
        }
      ],
      "name": "ClaimNotification",
      "type": "event"
    },
    {
      "constant": false,
      "inputs": [
        {
          "internalType": "uint8",
          "name": "eType",
          "type": "uint8"
        },
        {
          "internalType": "uint256",
          "name": "premium",
          "type": "uint256"
        }
      ],
      "name": "buyInsurance",
      "outputs": [
        {
          "internalType": "string",
          "name": "",
          "type": "string"
        }
      ],
      "payable": false,
      "stateMutability": "nonpayable",
      "type": "function"
    },
    {
      "constant": false,
      "inputs": [
        {
          "internalType": "uint8",
          "name": "eType",
          "type": "uint8"
        }
      ],
      "name": "payPremium",
      "outputs": [],
      "payable": true,
      "stateMutability": "payable",
      "type": "function"
    },
    {
      "constant": false,
      "inputs": [
        {
          "internalType": "uint8",
          "name": "eType",
          "type": "uint8"
        },
        {
          "internalType": "uint256",
          "name": "amount",
          "type": "uint256"
        }
      ],
      "name": "claimInsurance",
      "outputs": [
        {
          "internalType": "string",
          "name": "",
          "type": "string"
        }
      ],
      "payable": false,
      "stateMutability": "nonpayable",
      "type": "function"
    },
    {
      "constant": false,
      "inputs": [
        {
          "internalType": "address payable",
          "name": "claimer",
          "type": "address"
        },
        {
          "internalType": "uint8",
          "name": "eType",
          "type": "uint8"
        }
      ],
      "name": "approveInsurance",
      "outputs": [
        {
          "internalType": "string",
          "name": "",
          "type": "string"
        }
      ],
      "payable": false,
      "stateMutability": "nonpayable",
      "type": "function"
    },
    {
      "constant": true,
      "inputs": [],
      "name": "getClaims",
      "outputs": [
        {
          "components": [
            {
              "internalType": "address",
              "name": "sender",
              "type": "address"
            },
            {
              "internalType": "uint8",
              "name": "eType",
              "type": "uint8"
            },
            {
              "internalType": "uint256",
              "name": "amount",
              "type": "uint256"
            }
          ],
          "internalType": "struct Insurance.StoreClaim[]",
          "name": "",
          "type": "tuple[]"
        }
      ],
      "payable": false,
      "stateMutability": "view",
      "type": "function"
    },
    {
      "constant": true,
      "inputs": [],
      "name": "getUserClaims",
      "outputs": [
        {
          "components": [
            {
              "internalType": "uint8",
              "name": "eType",
              "type": "uint8"
            },
            {
              "internalType": "uint256",
              "name": "amount",
              "type": "uint256"
            }
          ],
          "internalType": "struct Insurance.Claim[]",
          "name": "",
          "type": "tuple[]"
        }
      ],
      "payable": false,
      "stateMutability": "view",
      "type": "function"
    },
    {
      "constant": true,
      "inputs": [],
      "name": "getBalance",
      "outputs": [
        {
          "internalType": "uint256",
          "name": "",
          "type": "uint256"
        }
      ],
      "payable": false,
      "stateMutability": "view",
      "type": "function"
    },
    {
      "constant": false,
      "inputs": [],
      "name": "closeCompany",
      "outputs": [],
      "payable": false,
      "stateMutability": "nonpayable",
      "type": "function"
    },
    {
      "constant": true,
      "inputs": [],
      "name": "getInsurances",
      "outputs": [
        {
          "components": [
            {
              "internalType": "uint8",
              "name": "eType",
              "type": "uint8"
            },
            {
              "internalType": "uint256",
              "name": "premium",
              "type": "uint256"
            }
          ],
          "internalType": "struct Insurance.Entity[]",
          "name": "",
          "type": "tuple[]"
        }
      ],
      "payable": false,
      "stateMutability": "view",
      "type": "function"
    },
    {
      "constant": true,
      "inputs": [],
      "name": "checkUser",
      "outputs": [
        {
          "internalType": "string",
          "name": "",
          "type": "string"
        }
      ],
      "payable": false,
      "stateMutability": "view",
      "type": "function"
    }
  ],
  "bytecode": "0x60806040523480156200001157600080fd5b5060405162001fd238038062001fd28339818101604052620000379190810190620000d6565b336000806101000a81548173ffffffffffffffffffffffffffffffffffffffff021916908373ffffffffffffffffffffffffffffffffffffffff16021790555080600160006101000a81548173ffffffffffffffffffffffffffffffffffffffff021916908373ffffffffffffffffffffffffffffffffffffffff1602179055505062000150565b600081519050620000d08162000136565b92915050565b600060208284031215620000e957600080fd5b6000620000f984828501620000bf565b91505092915050565b60006200010f8262000116565b9050919050565b600073ffffffffffffffffffffffffffffffffffffffff82169050919050565b620001418162000102565b81146200014d57600080fd5b50565b611e7280620001606000396000f3fe6080604052600436106100915760003560e01c8063637d3a3611610059578063637d3a361461016b578063c1562547146101a8578063c52822f8146101d3578063ccf2a0a3146101fe578063e28a392a1461023b57610091565b8063068ffb31146100965780630e709ca7146100ad57806312065fe0146100d8578063216e14fb146101035780633078eb401461012e575b600080fd5b3480156100a257600080fd5b506100ab610257565b005b3480156100b957600080fd5b506100c2610320565b6040516100cf9190611ae3565b60405180910390f35b3480156100e457600080fd5b506100ed6103e3565b6040516100fa9190611c69565b60405180910390f35b34801561010f57600080fd5b50610118610402565b6040516101259190611ac1565b60405180910390f35b34801561013a57600080fd5b5061015560048036036101509190810190611536565b6104c5565b6040516101629190611b27565b60405180910390f35b34801561017757600080fd5b50610192600480360361018d91908101906114d1565b61077c565b60405161019f9190611b27565b60405180910390f35b3480156101b457600080fd5b506101bd610b60565b6040516101ca9190611b27565b60405180910390f35b3480156101df57600080fd5b506101e8610cc3565b6040516101f59190611b05565b60405180910390f35b34801561020a57600080fd5b5061022560048036036102209190810190611536565b610e2e565b6040516102329190611b27565b60405180910390f35b6102556004803603610250919081019061150d565b611294565b005b6000809054906101000a900473ffffffffffffffffffffffffffffffffffffffff1673ffffffffffffffffffffffffffffffffffffffff163373ffffffffffffffffffffffffffffffffffffffff16146102e6576040517f08c379a00000000000000000000000000000000000000000000000000000000081526004016102dd90611c29565b60405180910390fd5b6000809054906101000a900473ffffffffffffffffffffffffffffffffffffffff1673ffffffffffffffffffffffffffffffffffffffff16ff5b6060600460003373ffffffffffffffffffffffffffffffffffffffff1673ffffffffffffffffffffffffffffffffffffffff168152602001908152602001600020805480602002602001604051908101604052809291908181526020016000905b828210156103da57838290600052602060002090600202016040518060400160405290816000820160009054906101000a900460ff1660ff1660ff16815260200160018201548152505081526020019060010190610381565b50505050905090565b60003373ffffffffffffffffffffffffffffffffffffffff1631905090565b6060600860003373ffffffffffffffffffffffffffffffffffffffff1673ffffffffffffffffffffffffffffffffffffffff168152602001908152602001600020805480602002602001604051908101604052809291908181526020016000905b828210156104bc57838290600052602060002090600202016040518060400160405290816000820160009054906101000a900460ff1660ff1660ff16815260200160018201548152505081526020019060010190610463565b50505050905090565b6060600160009054906101000a900473ffffffffffffffffffffffffffffffffffffffff1673ffffffffffffffffffffffffffffffffffffffff163373ffffffffffffffffffffffffffffffffffffffff161415610558576040517f08c379a000000000000000000000000000000000000000000000000000000000815260040161054f90611be9565b60405180910390fd5b600660003373ffffffffffffffffffffffffffffffffffffffff1673ffffffffffffffffffffffffffffffffffffffff16815260200190815260200160002060008460ff1660ff16815260200190815260200160002060009054906101000a900460ff16156105fc576040517f08c379a00000000000000000000000000000000000000000000000000000000081526004016105f390611c09565b60405180910390fd5b81600560003373ffffffffffffffffffffffffffffffffffffffff1673ffffffffffffffffffffffffffffffffffffffff16815260200190815260200160002060008560ff1660ff168152602001908152602001600020819055506001600660003373ffffffffffffffffffffffffffffffffffffffff1673ffffffffffffffffffffffffffffffffffffffff16815260200190815260200160002060008560ff1660ff16815260200190815260200160002060006101000a81548160ff021916908315150217905550600460003373ffffffffffffffffffffffffffffffffffffffff1673ffffffffffffffffffffffffffffffffffffffff16815260200190815260200160002060405180604001604052808560ff168152602001848152509080600181540180825580915050906001820390600052602060002090600202016000909192909190915060008201518160000160006101000a81548160ff021916908360ff1602179055506020820151816001015550505092915050565b6060600160009054906101000a900473ffffffffffffffffffffffffffffffffffffffff1673ffffffffffffffffffffffffffffffffffffffff163373ffffffffffffffffffffffffffffffffffffffff161461080e576040517f08c379a000000000000000000000000000000000000000000000000000000000815260040161080590611b89565b60405180910390fd5b600a60008473ffffffffffffffffffffffffffffffffffffffff1673ffffffffffffffffffffffffffffffffffffffff16815260200190815260200160002060008360ff1660ff16815260200190815260200160002060009054906101000a900460ff166108b1576040517f08c379a00000000000000000000000000000000000000000000000000000000081526004016108a890611b69565b60405180910390fd5b600b60008473ffffffffffffffffffffffffffffffffffffffff1673ffffffffffffffffffffffffffffffffffffffff16815260200190815260200160002060008360ff1660ff16815260200190815260200160002060009054906101000a900460ff1615610955576040517f08c379a000000000000000000000000000000000000000000000000000000000815260040161094c90611ba9565b60405180910390fd5b6001600b60008573ffffffffffffffffffffffffffffffffffffffff1673ffffffffffffffffffffffffffffffffffffffff16815260200190815260200160002060008460ff1660ff16815260200190815260200160002060006101000a81548160ff0219169083151502179055506000600760008573ffffffffffffffffffffffffffffffffffffffff1673ffffffffffffffffffffffffffffffffffffffff16815260200190815260200160002060008460ff1660ff1681526020019081526020016000205490508373ffffffffffffffffffffffffffffffffffffffff166108fc600a6007840281610a4657fe5b049081150290604051600060405180830381858888f19350505050158015610a72573d6000803e3d6000fd5b503373ffffffffffffffffffffffffffffffffffffffff166108fc600a6001840281610a9a57fe5b049081150290604051600060405180830381858888f19350505050158015610ac6573d6000803e3d6000fd5b50600760008573ffffffffffffffffffffffffffffffffffffffff1673ffffffffffffffffffffffffffffffffffffffff16815260200190815260200160002060008460ff1660ff168152602001908152602001600020600090556040518060400160405280600781526020017f537563636573730000000000000000000000000000000000000000000000000081525091505092915050565b60606000809054906101000a900473ffffffffffffffffffffffffffffffffffffffff1673ffffffffffffffffffffffffffffffffffffffff163373ffffffffffffffffffffffffffffffffffffffff161415610bf4576040518060400160405280600581526020017f6f776e65720000000000000000000000000000000000000000000000000000008152509050610cc0565b600160009054906101000a900473ffffffffffffffffffffffffffffffffffffffff1673ffffffffffffffffffffffffffffffffffffffff163373ffffffffffffffffffffffffffffffffffffffff161415610c87576040518060400160405280600681526020017f706f6c69636500000000000000000000000000000000000000000000000000008152509050610cc0565b6040518060400160405280600481526020017f757365720000000000000000000000000000000000000000000000000000000081525090505b90565b60606000809054906101000a900473ffffffffffffffffffffffffffffffffffffffff1673ffffffffffffffffffffffffffffffffffffffff163373ffffffffffffffffffffffffffffffffffffffff1614610d54576040517f08c379a0000000000000000000000000000000000000000000000000000000008152600401610d4b90611c29565b60405180910390fd5b6009805480602002602001604051908101604052809291908181526020016000905b82821015610e2557838290600052602060002090600202016040518060600160405290816000820160009054906101000a900473ffffffffffffffffffffffffffffffffffffffff1673ffffffffffffffffffffffffffffffffffffffff1673ffffffffffffffffffffffffffffffffffffffff1681526020016000820160149054906101000a900460ff1660ff1660ff16815260200160018201548152505081526020019060010190610d76565b50505050905090565b6060600660003373ffffffffffffffffffffffffffffffffffffffff1673ffffffffffffffffffffffffffffffffffffffff16815260200190815260200160002060008460ff1660ff16815260200190815260200160002060009054906101000a900460ff16610ed3576040517f08c379a0000000000000000000000000000000000000000000000000000000008152600401610eca90611bc9565b60405180910390fd5b81600260003373ffffffffffffffffffffffffffffffffffffffff1673ffffffffffffffffffffffffffffffffffffffff1681526020019081526020016000205411610f54576040517f08c379a0000000000000000000000000000000000000000000000000000000008152600401610f4b90611b49565b60405180910390fd5b600a60003373ffffffffffffffffffffffffffffffffffffffff1673ffffffffffffffffffffffffffffffffffffffff16815260200190815260200160002060008460ff1660ff16815260200190815260200160002060009054906101000a900460ff16611255576001600a60003373ffffffffffffffffffffffffffffffffffffffff1673ffffffffffffffffffffffffffffffffffffffff16815260200190815260200160002060008560ff1660ff16815260200190815260200160002060006101000a81548160ff02191690831515021790555081600760003373ffffffffffffffffffffffffffffffffffffffff1673ffffffffffffffffffffffffffffffffffffffff16815260200190815260200160002060008560ff1660ff16815260200190815260200160002081905550600860003373ffffffffffffffffffffffffffffffffffffffff1673ffffffffffffffffffffffffffffffffffffffff16815260200190815260200160002060405180604001604052808560ff168152602001848152509080600181540180825580915050906001820390600052602060002090600202016000909192909190915060008201518160000160006101000a81548160ff021916908360ff1602179055506020820151816001015550505061113e611458565b60405180606001604052803373ffffffffffffffffffffffffffffffffffffffff1681526020018560ff1681526020018481525090506009819080600181540180825580915050906001820390600052602060002090600202016000909192909190915060008201518160000160006101000a81548173ffffffffffffffffffffffffffffffffffffffff021916908373ffffffffffffffffffffffffffffffffffffffff16021790555060208201518160000160146101000a81548160ff021916908360ff160217905550604082015181600101555050506040518060400160405280600781526020017f537563636573730000000000000000000000000000000000000000000000000081525091505061128e565b6040518060400160405280600f81526020017f4475706c696361746520636c61696d000000000000000000000000000000000081525090505b92915050565b600660003373ffffffffffffffffffffffffffffffffffffffff1673ffffffffffffffffffffffffffffffffffffffff16815260200190815260200160002060008260ff1660ff16815260200190815260200160002060009054906101000a900460ff16611337576040517f08c379a000000000000000000000000000000000000000000000000000000000815260040161132e90611bc9565b60405180910390fd5b600560003373ffffffffffffffffffffffffffffffffffffffff1673ffffffffffffffffffffffffffffffffffffffff16815260200190815260200160002060008260ff1660ff168152602001908152602001600020543410156113d0576040517f08c379a00000000000000000000000000000000000000000000000000000000081526004016113c790611c49565b60405180910390fd5b34600260003373ffffffffffffffffffffffffffffffffffffffff1673ffffffffffffffffffffffffffffffffffffffff1681526020019081526020016000205401600260003373ffffffffffffffffffffffffffffffffffffffff1673ffffffffffffffffffffffffffffffffffffffff1681526020019081526020016000208190555050565b6040518060600160405280600073ffffffffffffffffffffffffffffffffffffffff168152602001600060ff168152602001600081525090565b6000813590506114a181611dea565b92915050565b6000813590506114b681611e01565b92915050565b6000813590506114cb81611e18565b92915050565b600080604083850312156114e457600080fd5b60006114f285828601611492565b9250506020611503858286016114bc565b9150509250929050565b60006020828403121561151f57600080fd5b600061152d848285016114bc565b91505092915050565b6000806040838503121561154957600080fd5b6000611557858286016114bc565b9250506020611568858286016114a7565b9150509250929050565b600061157e83836119f4565b60408301905092915050565b60006115968383611a23565b60408301905092915050565b60006115ae8383611a52565b60608301905092915050565b6115c381611d4b565b82525050565b60006115d482611cb4565b6115de8185611d07565b93506115e983611c84565b8060005b8381101561161a5781516116018882611572565b975061160c83611ce0565b9250506001810190506115ed565b5085935050505092915050565b600061163282611cbf565b61163c8185611d18565b935061164783611c94565b8060005b8381101561167857815161165f888261158a565b975061166a83611ced565b92505060018101905061164b565b5085935050505092915050565b600061169082611cca565b61169a8185611d29565b93506116a583611ca4565b8060005b838110156116d65781516116bd88826115a2565b97506116c883611cfa565b9250506001810190506116a9565b5085935050505092915050565b60006116ee82611cd5565b6116f88185611d3a565b9350611708818560208601611da6565b61171181611dd9565b840191505092915050565b6000611729602e83611d3a565b91507f436c61696d20616d6f756e742063616e6e6f742065786365656420616363756d60008301527f756c61746564207072656d69756d0000000000000000000000000000000000006020830152604082019050919050565b600061178f601583611d3a565b91507f4e6f207375636820636c61696d206578697374732100000000000000000000006000830152602082019050919050565b60006117cf602283611d3a565b91507f4f6e6c7920506f6c6963652063616e2063616c6c20746869732066756e63746960008301527f6f6e0000000000000000000000000000000000000000000000000000000000006020830152604082019050919050565b6000611835601783611d3a565b91507f436c61696d20616c726561647920417070726f766564210000000000000000006000830152602082019050919050565b6000611875601b83611d3a565b91507f496e737572616e6365206e6f74207075726368617365642079657400000000006000830152602082019050919050565b60006118b5601e83611d3a565b91507f506f6c6963652043616e7420707572636861736520496e737572616e636500006000830152602082019050919050565b60006118f5601b83611d3a565b91507f496e737572616e636520416c72656164792070757263686173656400000000006000830152602082019050919050565b6000611935602383611d3a565b91507f4f776e6c79206f776e6572732063616e2063616c6c20746869732066756e637460008301527f696f6e00000000000000000000000000000000000000000000000000000000006020830152604082019050919050565b600061199b602d83611d3a565b91507f5072656d69756d2073686f756c6420626520203e3d207072656d69756d20647560008301527f72696e67207075726368617365000000000000000000000000000000000000006020830152604082019050919050565b604082016000820151611a0a6000850182611ab2565b506020820151611a1d6020850182611a94565b50505050565b604082016000820151611a396000850182611ab2565b506020820151611a4c6020850182611a94565b50505050565b606082016000820151611a6860008501826115ba565b506020820151611a7b6020850182611ab2565b506040820151611a8e6040850182611a94565b50505050565b611a9d81611d8f565b82525050565b611aac81611d8f565b82525050565b611abb81611d99565b82525050565b60006020820190508181036000830152611adb81846115c9565b905092915050565b60006020820190508181036000830152611afd8184611627565b905092915050565b60006020820190508181036000830152611b1f8184611685565b905092915050565b60006020820190508181036000830152611b4181846116e3565b905092915050565b60006020820190508181036000830152611b628161171c565b9050919050565b60006020820190508181036000830152611b8281611782565b9050919050565b60006020820190508181036000830152611ba2816117c2565b9050919050565b60006020820190508181036000830152611bc281611828565b9050919050565b60006020820190508181036000830152611be281611868565b9050919050565b60006020820190508181036000830152611c02816118a8565b9050919050565b60006020820190508181036000830152611c22816118e8565b9050919050565b60006020820190508181036000830152611c4281611928565b9050919050565b60006020820190508181036000830152611c628161198e565b9050919050565b6000602082019050611c7e6000830184611aa3565b92915050565b6000819050602082019050919050565b6000819050602082019050919050565b6000819050602082019050919050565b600081519050919050565b600081519050919050565b600081519050919050565b600081519050919050565b6000602082019050919050565b6000602082019050919050565b6000602082019050919050565b600082825260208201905092915050565b600082825260208201905092915050565b600082825260208201905092915050565b600082825260208201905092915050565b6000611d5682611d6f565b9050919050565b6000611d6882611d6f565b9050919050565b600073ffffffffffffffffffffffffffffffffffffffff82169050919050565b6000819050919050565b600060ff82169050919050565b60005b83811015611dc4578082015181840152602081019050611da9565b83811115611dd3576000848401525b50505050565b6000601f19601f8301169050919050565b611df381611d5d565b8114611dfe57600080fd5b50565b611e0a81611d8f565b8114611e1557600080fd5b50565b611e2181611d99565b8114611e2c57600080fd5b5056fea365627a7a72315820fc9c8a74ab75a7d59306b4327ab72cdab99e56426e5a048765babb4d483e5a4e6c6578706572696d656e74616cf564736f6c63430005100040",
  "source": "pragma solidity >=0.4.21 <0.7.0;\npragma experimental ABIEncoderV2;\n\ncontract Insurance {\n    address payable private owner;\n    address private police;\n    \n    mapping(address => uint256) accumulatedPremium;\n\n    mapping(uint256 => bool) nonce;\n    mapping(address => Entity[])private insuranceInfo;\n    mapping(address => mapping(uint8 => uint256)) private insurances;\n    mapping(address => mapping(uint8 => bool))private hasPurchased;\n    mapping(address => mapping(uint8 => uint256)) private claims;\n    mapping(address => Claim[]) userClaims;\n    StoreClaim[] private insuranceClaims;\n    mapping(address => mapping(uint8 => bool)) private hasClaimed;\n    mapping(address => mapping(uint8 => bool)) private isApproved;\n    \n    event ClaimNotification(address claimer, uint256 amount);\n    \n    constructor(address _police) public {\n        owner = msg.sender;\n        police = _police;\n    }\n    \n    struct Entity{\n        uint8 eType;\n        uint256 premium;\n    }\n    \n    struct Claim{\n        uint8 eType;\n        uint256 amount;\n    }\n    \n    struct StoreClaim {\n        address sender;\n        uint8 eType;\n        uint256 amount;\n    }\n    \n    modifier isPolice(){\n        require(msg.sender == police,\"Only Police can call this function\");\n        _;\n    }\n    \n    modifier isNotPolice(){\n        require(msg.sender != police,\"Police Cant purchase Insurance\");\n        _;\n    }\n    \n    modifier isOwner(){\n        require(msg.sender == owner, \"Ownly owners can call this function\");\n        _;\n    }\n    \n    function buyInsurance(uint8 eType, uint256 premium)\n    public isNotPolice\n    returns (string memory){\n        require(!hasPurchased[msg.sender][eType], \"Insurance Already purchased\");\n        insurances[msg.sender][eType] = premium;\n        hasPurchased[msg.sender][eType] = true;\n        insuranceInfo[msg.sender].push(Entity(eType,premium));\n    }\n    \n    function payPremium(uint8 eType)\n    public payable{\n        require(hasPurchased[msg.sender][eType],\"Insurance not purchased yet\");\n        require(msg.value >= insurances[msg.sender][eType], \"Premium should be  >= premium during purchase\");\n        accumulatedPremium[msg.sender] = accumulatedPremium[msg.sender] +msg.value;\n    }\n    \n    function claimInsurance(uint8 eType, uint256 amount)\n    public \n    returns(string memory){\n        require(hasPurchased[msg.sender][eType],\"Insurance not purchased yet\");\n        require(accumulatedPremium[msg.sender] > amount, \"Claim amount cannot exceed accumulated premium\");\n        if(!hasClaimed[msg.sender][eType]){\n            hasClaimed[msg.sender][eType] = true;\n            claims[msg.sender][eType] = amount;\n            userClaims[msg.sender].push(Claim(eType,amount));\n            StoreClaim memory storeClaim = StoreClaim(msg.sender,eType,amount);\n            insuranceClaims.push(storeClaim);\n            return \"Success\";\n        }\n        else\n            return \"Duplicate claim\";\n    }\n    \n    function approveInsurance(address payable claimer, uint8 eType)\n    public isPolice\n    returns (string memory)\n    {\n        require(hasClaimed[claimer][eType],\"No such claim exists!\");\n        require(!isApproved[claimer][eType],\"Claim already Approved!\");\n            isApproved[claimer][eType] = true;\n            uint256 amount = claims[claimer][eType];\n            claimer.transfer(amount * 7/10);\n            address(msg.sender).transfer(amount * 1 / 10);\n            delete claims[claimer][eType];\n            return \"Success\";\n    }\n    \n    function getClaims()\n    public view isOwner\n    returns (StoreClaim[] memory){\n        return insuranceClaims;\n    }\n    \n    function getUserClaims()\n    public view \n    returns (Claim[] memory){\n        return userClaims[msg.sender];\n    }\n    \n    \n    function getBalance()\n    public view\n    returns (uint256){\n        return address(msg.sender).balance;\n    }\n    \n    function closeCompany()\n    public isOwner {\n        selfdestruct(owner);\n    }\n    \n    function getInsurances()\n    public view \n    returns (Entity[] memory){\n        return insuranceInfo[msg.sender];\n    }\n    \n    function checkUser() \n    public view\n    returns (string memory){\n        if(msg.sender == owner)\n            return \"owner\";\n        if(msg.sender == police)\n            return \"police\";\n        else \n            return \"user\";\n    }\n\n}",
  "sourcePath": "/media/arjun/Miscellaneous/bchain/simple-inc/contracts/Insurance.sol",
  "compiler": {
    "name": "solc",
    "version": "0.5.16+commit.9c3226ce.Emscripten.clang"
  },
  "schemaVersion": "3.2.3",
  "updatedAt": "2020-08-15T19:23:00.220Z",
  "networkType": "ethereum",
  "devdoc": {
    "methods": {}
  },
  "userdoc": {
    "methods": {}
  }
}